:100000000C9434000C9443010C9451000C94510056
:100010000C9451000C9451000C9451000C9451001C
:100020000C9451000C9451000C9451000C9451000C
:100030000C9451000C9451000C9451000C945100FC
:100040000C9451000C9451000C9451000C945100EC
:100050000C9451000C9451000C9451000C945100DC
:100060000C9451000C94510011241FBECFEFD8E026
:10007000DEBFCDBF11E0A0E0B1E0ECEAF6E002C0E7
:1000800005900D92A233B107D9F721E0A2E3B1E0C8
:1000900001C01D92AF36B207E1F70E9425030C9410
:1000A00054030C940000459A8AE68A95F1F700C043
:1000B0004598089598B1907F98B998B182958F70BE
:1000C000892B88B90C945300CF93C82F449A0E946F
:1000D0005A008C2F8295807F0E945A0085EF8A9566
:1000E000F1F70000CF910895CF93C82F44980E9454
:1000F0005A008C2F8295807F0E945A0080EE8A954C
:10010000F1F7CF91089581E00E9474008FE39FE1A1
:100110000197F1F700C00000089587B18F6387B998
:1001200088B1807C88B98FE59AEE0197F1F700C01D
:10013000000080E30E945A008FE19EE40197F1F7EE
:1001400000C000000E9453008FE99FE00197F1F783
:1001500000C000000E9453008FE99FE00197F1F773
:1001600000C0000080E20E945A008FE19EE40197E7
:10017000F1F700C0000088E20E9474008CE00E9449
:10018000740086E00E9474000C94830082E00E9458
:1001900074008FE39FE10197F1F700C0000008951C
:1001A000623061F018F4613031F00895633041F04D
:1001B000643041F0089580580C9474008054FCCF52
:1001C0008057FACF8053F8CFCF93DF93EC0189911A
:1001D000811103C0DF91CF9108950E946400F7CF91
:1001E0000F931F93CF93DF938B0128E0829FC00171
:1001F000112480640E947400E801085F1F4F8991F8
:100200000E946400C017D107D1F780E8DF91CF9139
:100210001F910F910C947400CF93DF93EC018881B0
:1002200082958F708A3060F0895C0E9464008881BA
:100230008F708A3038F0895CDF91CF910C94640024
:10024000805DF3CF805DF8CFEF92FF920F931F9305
:10025000CF93DF937C018B01642F80E00E94D0005C
:10026000C0E0D0E0C7018C0F9D1FC017D1073CF044
:10027000DF91CF911F910F91FF90EF9008950E9411
:100280000C012196EFCF1F920F920FB60F921124FF
:100290002F933F934F935F936F937F938F939F938E
:1002A000AF93BF93EF93FF930E947F0286FF03C03B
:1002B00081E080936E01FF91EF91BF91AF919F918B
:1002C0008F917F916F915F914F913F912F910F90FF
:1002D0000FBE0F901F901895249884B18C6284B93A
:1002E000549A85B1866085B95C9A08958EE78CBD75
:1002F0008DB58E7F8DBD8FE39CE90197F1F700C02E
:100300000000089581E58CBD8DB581608DBD8FE3C2
:100310009CE90197F1F700C0000008958EBD0DB46F
:1003200007FEFDCF80EA8A95F1F78EB50895EF922A
:10033000FF920F931F93CF93DF938C017B01EC010E
:10034000CE01801B910B8E159F054CF0F80180812A
:10035000DF91CF911F910F91FF90EF9008958881C9
:100360000E948E018993ECCF29980895299A0895C7
:100370005C9808955C9A0895289A0895289808959D
:1003800084B1836084B90C94BE010F931F93CF9303
:10039000DF9300D0CDB7DEB7182F062F0E94820161
:1003A0001F71106219830A830E94B40162E070E039
:1003B000CE0101960E9497010E94B6010F900F9006
:1003C000DF91CF911F910F910895CF93DF93EC01AF
:1003D0000E948201809132018130E1F30E94BE01CE
:1003E00081E0809332016EE480E00E94C5010E94AA
:1003F000B40181EE0E948E010E94B6010E94B401F8
:1004000080EA0E948E0169E070E0CE010E949701AF
:100410000E94B6010E94BC0185E38A95F1F70000B5
:10042000DF91CF910C94BE010E94820166E286E0CA
:100430000E94C5016CE480E00E94C5016FE284E087
:100440000E94C5016EE480E00E94C5011092320155
:1004500008950E94820166E286E00E94C50169E07B
:1004600081E10E94C501109232016FE080E00E949C
:10047000C5010C94BC010F931F93CF93DF93D82F2A
:100480008B01C42F0E9482010E94B4018D2F8F71B5
:1004900080620E948E016C2F70E0C8010E9497015B
:1004A000DF91CF911F910F910C94B601CF93C82F7C
:1004B0000E9482010E94B4018C2F8F710E948E01D4
:1004C00061E070E080E090E00E949701C82F0E94F8
:1004D000B6018C2FCF910895CF93DF93EC010E944A
:1004E00082010E94B40181E60E948E0169E070E001
:1004F000CE010E949701DF91CF910C94B6018FEF4E
:100500000C948E0180913201811107C029988FEFE0
:100510000E948E01299A8074089580E00895809148
:10052000400186FB882780F991E089270895CF93C1
:10053000DF93CDB7DEB7A9970FB6F894DEBF0FBE35
:10054000CDBF85E0E9E0F1E0DE01959601900D92E6
:100550008A95E1F789E0EEE0F1E0DE015C9601903A
:100560000D928A95E1F789E0E7E1F1E0DE0153962B
:1005700001900D928A95E1F789E0E0E2F1E0DE0179
:100580001A9601900D928A95E1F789E0E9E2F1E08F
:10059000DE01119601900D928A95E1F70E94760195
:1005A0002C9865E070E0CE0185960E9497012C9A08
:1005B0002FEF84E39CE0215080409040E1F700C0A1
:1005C00000002C9869E070E0CE014C960E949701E3
:1005D0002C9A2FEF84E39CE0215080409040E1F77B
:1005E00000C000002C9869E070E0CE0143960E94A4
:1005F00097012C9A2FEF84E39CE02150804090409B
:10060000E1F700C000002C9869E070E0CE010A9686
:100610000E9497012C9A2FEF84E39CE021508040A8
:100620009040E1F700C000002C9869E070E0CE0136
:1006300001960E9497012C9AA9960FB6F894DEBFF6
:100640000FBECDBFDF91CF9108950E948D000E9413
:10065000C00182E08093690081E08DBB0E946C0143
:100660000E9482012FEF80E792E02150804090406D
:10067000E1F700C0000078940E94290210926E01F8
:1006800060E487E00E94C50180916E018130E1F74E
:1006900085E691E00E946C02809169018F3B11F424
:0C06A0005B9AECCF5B98EACFF894FFCF98
:1006AC000142000000000000000143000100014471
:1006BC0000010300000000014D000001FFFFFFFFDF
:1006CC00014F00FFFF03000000014300005A5A5A7B
:0206DC005A5A68
:00000001FF
