:100000000C9434000C944B010C9451000C9451004E
:100010000C9451000C9451000C9451000C9451001C
:100020000C9451000C9451000C9451000C9451000C
:100030000C9451000C9451000C9451000C945100FC
:100040000C9451000C9451000C9451000C945100EC
:100050000C9451000C9451000C9451000C945100DC
:100060000C9451000C94510011241FBECFEFD8E026
:10007000DEBFCDBF11E0A0E0B1E0E8E9F6E002C0EC
:1000800005900D92A233B107D9F721E0A2E3B1E0C8
:1000900001C01D92AF36B207E1F70E941C030C9419
:1000A0004A030C940000459A8AE68A95F1F700C04D
:1000B0004598089598B1907F98B998B182958F70BE
:1000C000892B88B90C945300CF93C82F449A0E946F
:1000D0005A008C2F8295807F0E945A0085EF8A9566
:1000E000F1F70000CF910895CF93C82F44980E9454
:1000F0005A008C2F8295807F0E945A0080EE8A954C
:10010000F1F7CF91089581E00E9474008FE39FE1A1
:100110000197F1F700C00000089587B18F6387B998
:1001200088B1807C88B98FE59AEE0197F1F700C01D
:10013000000080E30E945A008FE19EE40197F1F7EE
:1001400000C000000E9453008FE99FE00197F1F783
:1001500000C000000E9453008FE99FE00197F1F773
:1001600000C0000080E20E945A008FE19EE40197E7
:10017000F1F700C0000088E20E9474008CE00E9449
:10018000740086E00E9474000C94830082E00E9458
:1001900074008FE39FE10197F1F700C0000008951C
:1001A000623061F018F4613031F00895633041F04D
:1001B000643041F0089580580C9474008054FCCF52
:1001C0008057FACF8053F8CFCF93DF93EC0189911A
:1001D000811103C0DF91CF9108950E946400F7CF91
:1001E0000F931F93CF93DF938B0128E0829FC00171
:1001F000112480640E947400E801085F1F4F8991F8
:100200000E946400C017D107D1F780E8DF91CF9139
:100210001F910F910C947400CF93DF93EC018881B0
:1002200082958F708A3060F0895C0E9464008881BA
:100230008F708A3038F0895CDF91CF910C94640024
:10024000805DF3CF805DF8CFEF92FF920F931F9305
:10025000CF93DF937C018B01642F80E00E94D0005C
:10026000C0E0D0E0C7018C0F9D1FC017D1073CF044
:10027000DF91CF911F910F91FF90EF9008950E9411
:100280000C012196EFCF0E94830286FF03C081E01C
:1002900080936E0108951F920F920FB60F92112452
:1002A0002F933F934F935F936F937F938F939F937E
:1002B000AF93BF93EF93FF930E94830286FF03C027
:1002C00081E080936E01FF91EF91BF91AF919F917B
:1002D0008F917F916F915F914F913F912F910F90EF
:1002E0000FBE0F901F901895249884B18E6284B928
:1002F00085B1866085B908958EE78CBD8DB58E7FFA
:100300008DBD8FE39CE90197F1F700C000000895CF
:1003100081E58CBD8DB581608DBD8FE39CE9019732
:10032000F1F700C0000008958EBD0DB407FEFDCFAB
:1003300080EA8A95F1F78EB50895EF92FF920F93B8
:100340001F93CF93DF938C017B01EC01CE01801BC7
:10035000910B8E159F054CF0F8018081DF91CF91B4
:100360001F910F91FF90EF90089588810E94940152
:100370008993ECCF29980895299A08952A98089589
:100380002A9A0895409A089540980895389A0C94AE
:10039000C4010F931F93CF93DF9300D0CDB7DEB787
:1003A000182F062F0E9488011F71106219830A837B
:1003B0000E94BA0162E070E0CE0101960E949D01A8
:1003C0000E94BC010F900F90DF91CF911F910F9170
:1003D0000895CF93DF93EC010E9488018091320150
:1003E0008130E1F30E94C40181E0809332016EE428
:1003F00080E00E94C9010E94BA0181EE0E9494012E
:100400000E94BC010E94BA0180EA0E94940169E046
:1004100070E0CE010E949D010E94BC010E94C201B9
:1004200085E38A95F1F70000DF91CF910C94C40128
:100430000E94880166E286E00E94C9016CE480E0C7
:100440000E94C9016FE284E00E94C9016EE480E06D
:100450000E94C9011092320108950E94880166E24B
:1004600086E00E94C90169E081E10E94C901109201
:1004700032016FE080E00E94C9010C94C2010F9329
:100480001F93CF93DF93D82F8B01C42F0E94880135
:100490000E94BA018D2F8F7180620E9494016C2F8F
:1004A00070E0C8010E949D01DF91CF911F910F91D3
:1004B0000C94BC01CF93C82F0E9488010E94BA01FE
:1004C0008C2F8F710E94940161E070E080E090E0D9
:1004D0000E949D01C82F0E94BC018C2FCF910895CE
:1004E000CF93DF93EC010E9488010E94BA0181E65C
:1004F0000E94940169E070E0CE010E949D01DF91AD
:10050000CF910C94BC018FEF0C9494018091400129
:1005100086FB882780F991E089270895CF93DF93A0
:10052000CDB7DEB7A9970FB6F894DEBF0FBECDBF2B
:1005300085E0E9E0F1E0DE01959601900D928A9563
:10054000E1F789E0EEE0F1E0DE015C9601900D92CA
:100550008A95E1F789E0E7E1F1E0DE015396019049
:100560000D928A95E1F789E0E0E2F1E0DE011A966A
:1005700001900D928A95E1F789E0E9E2F1E0DE0170
:10058000119601900D928A95E1F70E947C012A98BC
:1005900065E070E0CE0185960E949D012A9A2FEFBA
:1005A00084E39CE0215080409040E1F700C00000CF
:1005B0002A9869E070E0CE014C960E949D012A9A2B
:1005C0002FEF84E39CE0215080409040E1F700C091
:1005D00000002A9869E070E0CE0143960E949D01D8
:1005E0002A9A2FEF84E39CE0215080409040E1F76D
:1005F00000C000002A9869E070E0CE010A960E94CF
:100600009D012A9A2FEF84E39CE021508040904086
:10061000E1F700C000002A9869E070E0CE01019681
:100620000E949D012A9AA9960FB6F894DEBF0FBECC
:10063000CDBFDF91CF9108950E94C60182E08093E3
:10064000690081E08DBB0E9474010E9488013D9A7F
:100650002FEF80E792E0215080409040E1F700C00A
:10066000000078940E942D0210926E0160E487E0F1
:100670000E94C90180916E018130E1F785E691E029
:100680000E947002809169018F3B11F4459AECCF72
:080690004598EACFF894FFCF72
:100698000142000000000000000143000100014485
:1006A80000010300000000014D000001FFFFFFFFF3
:1006B800014F00FFFF03000000014300005A5A5A8F
:0206C8005A5A7C
:00000001FF
