:100000000C9434000C944B010C9451000C9451004E
:100010000C9451000C9451000C9451000C9451001C
:100020000C9451000C9451000C9451000C9451000C
:100030000C9451000C9451000C9451000C945100FC
:100040000C9451000C9451000C9451000C945100EC
:100050000C9451000C9451000C9451000C945100DC
:100060000C9451000C94510011241FBECFEFD8E026
:10007000DEBFCDBF11E0A0E0B1E0E6EDF6E002C0EA
:1000800005900D92A833B107D9F721E0A8E3B1E0BC
:1000900001C01D92A537B207E1F70E942D030C9411
:1000A00069030C940000459A8AE68A95F1F700C02E
:1000B0004598089598B1907F98B998B182958F70BE
:1000C000892B88B90C945300CF93C82F449A0E946F
:1000D0005A008C2F8295807F0E945A0085EF8A9566
:1000E000F1F70000CF910895CF93C82F44980E9454
:1000F0005A008C2F8295807F0E945A0080EE8A954C
:10010000F1F7CF91089581E00E9474008FE39FE1A1
:100110000197F1F700C00000089587B18F6387B998
:1001200088B1807C88B98FE59AEE0197F1F700C01D
:10013000000080E30E945A008FE19EE40197F1F7EE
:1001400000C000000E9453008FE99FE00197F1F783
:1001500000C000000E9453008FE99FE00197F1F773
:1001600000C0000080E20E945A008FE19EE40197E7
:10017000F1F700C0000088E20E9474008CE00E9449
:10018000740086E00E9474000C94830082E00E9458
:1001900074008FE39FE10197F1F700C0000008951C
:1001A000623061F018F4613031F00895633041F04D
:1001B000643041F0089580580C9474008054FCCF52
:1001C0008057FACF8053F8CFCF93DF93EC0189911A
:1001D000811103C0DF91CF9108950E946400F7CF91
:1001E0000F931F93CF93DF938B0128E0829FC00171
:1001F000112480640E947400E801085F1F4F8991F8
:100200000E946400C017D107D1F780E8DF91CF9139
:100210001F910F910C947400CF93DF93EC018881B0
:1002200082958F708A3060F0895C0E9464008881BA
:100230008F708A3038F0895CDF91CF910C94640024
:10024000805DF3CF805DF8CFEF92FF920F931F9305
:10025000CF93DF937C018B01642F80E00E94D0005C
:10026000C0E0D0E0C7018C0F9D1FC017D1073CF044
:10027000DF91CF911F910F91FF90EF9008950E9411
:100280000C012196EFCF0E94870286FF03C081E018
:100290008093740108951F920F920FB60F9211244C
:1002A0002F933F934F935F936F937F938F939F937E
:1002B000AF93BF93EF93FF930E94870286FF03C023
:1002C00081E080937401FF91EF91BF91AF919F9175
:1002D0008F917F916F915F914F913F912F910F90EF
:1002E0000FBE0F901F901895249884B18C6284B92A
:1002F000549A85B1866085B95C9A08958EE78CBD65
:100300008DB58E7F8DBD8FE39CE90197F1F700C01D
:100310000000089581E58CBD8DB581608DBD8FE3B2
:100320009CE90197F1F700C0000008958EBD0DB45F
:1003300007FEFDCF80EA8A95F1F78EB50895EF921A
:10034000FF920F931F93CF93DF938C017B01EC01FE
:10035000CE01801B910B8E159F054CF0F80180811A
:10036000DF91CF911F910F91FF90EF9008958881B9
:100370000E9496018993ECCF29980895299A0895AF
:100380005C9808955C9A0895289A0895289808958D
:1003900084B1836084B90C94C6010F931F93CF93EB
:1003A000DF9300D0CDB7DEB7182F062F0E948A0149
:1003B0001F71106219830A830E94BC0162E070E021
:1003C000CE0101960E949F010E94BE010F900F90E6
:1003D000DF91CF911F910F910895CF93DF93EC019F
:1003E0000E948A01809138018130E1F30E94C601A8
:1003F00081E0809338016EE480E00E94CD010E948C
:10040000BC0181EE0E9496010E94BE010E94BC01C7
:1004100080EA0E94960169E070E0CE010E949F018F
:100420000E94BE010E94C40185E38A95F1F7000095
:10043000DF91CF910C94C6010E948A0166E286E0AA
:100440000E94CD016CE480E00E94CD016FE284E067
:100450000E94CD016EE480E00E94CD01109238012F
:1004600008950E948A0166E286E00E94CD0169E05B
:1004700081E10E94CD01109238016FE080E00E947E
:10048000CD010C94C4010F931F93CF93DF93D82F0A
:100490008B01C42F0E948A010E94BC018D2F8F7195
:1004A00080620E9496016C2F70E0C8010E949F013B
:1004B000DF91CF911F910F910C94BE01CF93C82F64
:1004C0000E948A010E94BC018C2F8F710E949601AC
:1004D00061E070E080E090E00E949F01C82F0E94E0
:1004E000BE018C2FCF910895CF93DF93EC010E9432
:1004F0008A010E94BC0181E60E94960169E070E0D9
:10050000CE010E949F01DF91CF910C94BE018FEF2D
:100510000C94960180913801811107C029988FEFC2
:100520000E949601299A8074089580E00895809130
:10053000460186FB882780F991E089270895CF93AB
:10054000DF93CDB7DEB7A9970FB6F894DEBF0FBE25
:10055000CDBF85E0E9E0F1E0DE01959601900D92D6
:100560008A95E1F789E0EEE0F1E0DE015C9601902A
:100570000D928A95E1F789E0E7E1F1E0DE0153961B
:1005800001900D928A95E1F789E0E0E2F1E0DE0169
:100590001A9601900D928A95E1F789E0E9E2F1E07F
:1005A000DE01119601900D928A95E1F70E947E017D
:1005B0002C9865E070E0CE0185960E949F012C9AF0
:1005C0002FEF84E39CE0215080409040E1F700C091
:1005D00000002C9869E070E0CE014C960E949F01CB
:1005E0002C9A2FEF84E39CE0215080409040E1F76B
:1005F00000C000002C9869E070E0CE0143960E9494
:100600009F012C9A2FEF84E39CE021508040904082
:10061000E1F700C000002C9869E070E0CE010A9676
:100620000E949F012C9A2FEF84E39CE02150804090
:100630009040E1F700C000002C9869E070E0CE0126
:1006400001960E949F012C9AA9960FB6F894DEBFDE
:100650000FBECDBFDF91CF9108950E948D0082E340
:1006600091E00E94E4000E94C80182E0809369004A
:1006700081E08DBB0E9474010E948A01539A2FEF82
:1006800080E792E0215080409040E1F700C00000F8
:1006900078940E9431021092740160E487E00E9415
:1006A000CD01809174018130E1F78BE691E00E94E9
:1006B000740280916F018F3B51F45B9A42E050E0ED
:1006C00069E070E08BE691E00E942401E4CF5B9842
:0606D000F5CFF894FFCF06
:1006D6000142000000000000000143000100014447
:1006E60000010300000000014D000001FFFFFFFFB5
:1006F600014F00FFFF03000000014300005A5A5A51
:080706005A5A535441525400A9
:00000001FF
