:100000000C9434000C9481000C9451000C94510019
:100010000C9451000C9451000C9451000C9451001C
:100020000C9451000C9451000C9451000C9451000C
:100030000C9451000C9451000C9451000C945100FC
:100040000C9451000C9451000C9451000C945100EC
:100050000C9451000C9451000C9451000C945100DC
:100060000C9451000C94510011241FBECFEFD8E026
:10007000DEBFCDBF11E0A0E0B1E0ECE7F7E002C0E9
:1000800005900D92A233B107D9F721E0A2E3B1E0C8
:1000900001C01D92A636B207E1F70E9464030C94DA
:1000A000BC030C940000CF930E9412018FEF0E94BA
:1000B000EC00C82F0E941401C5FF06C060E287E073
:1000C0000E94210110923201C4FF0EC060E187E05E
:1000D0000E9421010E941A0185E38A95F1F7000030
:1000E0000E941C0110923201C0FF09C00E9412013F
:1000F00081EE0E94EC000E94140110923201CF9117
:1001000008951F920F920FB60F9211242F933F93D1
:100110004F935F936F937F938F939F93AF93BF930F
:10012000CF93EF93FF930E9412018FEF0E94EC0098
:10013000C82F0E941401C5FF06C060E287E00E943C
:10014000210110923201C4FF0CC060E187E00E94DF
:1001500021010E941A0185E38A95F1F700000E94AF
:100160001C01C0FF07C00E94120181EE0E94EC003A
:100170000E941401FF91EF91CF91BF91AF919F9198
:100180008F917F916F915F914F913F912F910F9040
:100190000FBE0F901F901895249884B18E6284B979
:1001A00085B1866085B908958EE78CBD8DB58E7F4B
:1001B0008DBD8FE39CE90197F1F700C00000089521
:1001C00081E58CBD8DB581608DBD8FE39CE9019784
:1001D000F1F700C0000008958EBD0DB407FEFDCFFD
:1001E00080EA8A95F1F78EB50895EF92FF920F930A
:1001F0001F93CF93DF938C017B01EC01CE01801B19
:10020000910B8E159F054CF0F8018081DF91CF9105
:100210001F910F91FF90EF90089588810E94EC004C
:100220008993ECCF29980895299A08952A980895DA
:100230002A9A0895409A089540980895389A0C94FF
:100240001C010F931F93CF93DF9300D0CDB7DEB780
:10025000182F062F0E94E0001F71106219830A8375
:100260000E94120162E070E0CE0101960E94F5004A
:100270000E9414010F900F90DF91CF911F910F9169
:100280000895CF93DF93EC010E94E000809132014A
:100290008130E1F30E941C0181E0809332016EE421
:1002A00080E00E9421010E94120181EE0E94EC0078
:1002B0000E9414010E94120180EA0E94EC0069E091
:1002C00070E0CE010E94F5000E9414010E941A0104
:1002D00085E38A95F1F70000DF91CF910C941C0122
:1002E0000E94E00066E286E00E9421016CE480E06A
:1002F0000E9421016FE284E00E9421016EE480E00F
:100300000E9421011092320108950E94E00066E2ED
:1003100086E00E94210169E081E10E9421011092A2
:1003200032016FE080E00E9421010C941A010F93CA
:100330001F93CF93DF93D82F8B01C42F0E94E0002F
:100340000E9412018D2F8F7180620E94EC006C2F31
:1003500070E0C8010E94F500DF91CF911F910F91CD
:100360000C941401CF93C82F0E94E0000E94120148
:100370008C2F8F710E94EC0061E070E080E090E0D3
:100380000E94F500C82F0E9414018C2FCF91089570
:10039000CF93DF93EC010E94E0000E94120181E6FE
:1003A0000E94EC0069E070E0CE010E94F500DF9150
:1003B000CF910C9414018FEF0C94EC00459A8AE6CF
:1003C0008A95F1F700C04598089598B1907F98B943
:1003D00098B182958F70892B88B90C94DE01CF93E8
:1003E000C82F449A0E94E5018C2F8295807F0E943D
:1003F000E50185EF8A95F1F70000CF910895CF933D
:10040000C82F44980E94E5018C2F8295807F0E941E
:10041000E50180EE8A95F1F7CF91089581E00E9481
:10042000FF018FE39FE10197F1F700C000000895FD
:1004300087B18F6387B988B1807C88B98FE59AEEE0
:100440000197F1F700C0000080E30E94E5018FE111
:100450009EE40197F1F700C000000E94DE018FE9E1
:100460009FE00197F1F700C000000E94DE018FE9D4
:100470009FE00197F1F700C0000080E20E94E501D3
:100480008FE19EE40197F1F700C0000088E20E942E
:10049000FF018CE00E94FF0186E00E94FF010C94A6
:1004A0000E0282E00E94FF018FE39FE10197F1F7C6
:1004B00000C000000895623061F018F4613031F03E
:1004C0000895633041F0643041F0089580580C94F1
:1004D000FF018054FCCF8057FACF8053F8CFCF93E1
:1004E000DF93EC018991811103C0DF91CF910895D1
:1004F0000E94EF01F7CF0F931F93CF93DF938B01F0
:1005000028E0829FC001112480640E94FF01E8015D
:10051000085F1F4F89910E94EF01C017D107D1F7E3
:1005200080E8DF91CF911F910F910C94FF01CF9341
:10053000DF93EC01888182958F708A3060F0895C4E
:100540000E94EF0188818F708A3038F0895CDF91DA
:10055000CF910C94EF01805DF3CF805DF8CFEF92E7
:10056000FF920F931F93CF93DF937C018B01642F36
:1005700080E00E945B02C0E0D0E0C7018C0F9D1FAD
:10058000C017D1073CF0DF91CF911F910F91FF90E1
:10059000EF9008950E9497022196EFCF809141013C
:1005A00086FB882780F991E089270895CF93DF9310
:1005B000CDB7DEB7A9970FB6F894DEBF0FBECDBF9B
:1005C00085E0E9E0F1E0DE01959601900D928A95D3
:1005D000E1F789E0EEE0F1E0DE015C9601900D923A
:1005E0008A95E1F789E0E7E1F1E0DE0153960190B9
:1005F0000D928A95E1F789E0E0E2F1E0DE011A96DA
:1006000001900D928A95E1F789E0E9E2F1E0DE01DF
:10061000119601900D928A95E1F70E94D4002A98D4
:1006200065E070E0CE0185960E94F5002A9A2FEFD2
:1006300084E39CE0215080409040E1F700C000003E
:100640002A9869E070E0CE014C960E94F5002A9A43
:100650002FEF84E39CE0215080409040E1F700C000
:1006600000002A9869E070E0CE0143960E94F500F0
:100670002A9A2FEF84E39CE0215080409040E1F7DC
:1006800000C000002A9869E070E0CE010A960E943E
:10069000F5002A9A2FEF84E39CE02150804090409F
:1006A000E1F700C000002A9869E070E0CE010196F1
:1006B0000E94F5002A9AA9960FB6F894DEBF0FBEE5
:1006C000CDBFDF91CF9108950E9418020E941E01B4
:1006D0000E94CC000E94E0002FEF80E792E02150C2
:1006E00080409040E1F700C000008AE080936900FC
:1006F00081E08DBB789487B1806387B90E947001D7
:1007000049E050E060E071E08DE391E00E94AD03CC
:100710000E94D4000E94160169E070E08DE391E030
:100720000E94F5000E941801459A80913D018F3F7B
:1007300091F480913F018A3571F40E945300449AEC
:100740008DE391E00E94410144988FE39CE9019779
:10075000F1F700C000004598D3CFFB01DC01415008
:10076000504048F001900D920020C9F701C01D9241
:0C07700041505040E0F70895F894FFCF8E
:10077C0001420000000000000001430001000144A0
:10078C0000010300000000014D000001FFFFFFFF0E
:10079C00014F00FFFF03000000014300005A5A5AAA
:0207AC005A5A97
:00000001FF
