:100000000C9434000C9481000C9451000C94510019
:100010000C9451000C9451000C9451000C9451001C
:100020000C9451000C9451000C9451000C9451000C
:100030000C9451000C9451000C9451000C945100FC
:100040000C9451000C9451000C9451000C945100EC
:100050000C9451000C9451000C9451000C945100DC
:100060000C9451000C94510011241FBECFEFD8E026
:10007000DEBFCDBF11E0A0E0B1E0ECE9F7E002C0E7
:1000800005900D92A233B107D9F721E0A2E3B1E0C8
:1000900001C01D92A636B207E1F70E9475030C94C9
:1000A000CC030C940000CF930E9414018FEF0E94A8
:1000B000EE00C82F0E941601C5FF06C060E287E06F
:1000C0000E94250110923201C4FF0EC060E187E05A
:1000D0000E9425010E941C0185E38A95F1F700002A
:1000E0000E941E0110923201C0FF09C00E9414013B
:1000F00081EE0E94EE000E94160110923201CF9113
:1001000008951F920F920FB60F9211242F933F93D1
:100110004F935F936F937F938F939F93AF93BF930F
:10012000CF93EF93FF930E9414018FEF0E94EE0094
:10013000C82F0E941601C5FF06C060E287E00E943A
:10014000250110923201C4FF0CC060E187E00E94DB
:1001500025010E941C0185E38A95F1F700000E94A9
:100160001E01C0FF07C00E94140181EE0E94EE0034
:100170000E941601FF91EF91CF91BF91AF919F9196
:100180008F917F916F915F914F913F912F910F9040
:100190000FBE0F901F901895249884B18C6284B97B
:1001A000549A85B1866085B95C9A08958EE78CBDB6
:1001B0008DB58E7F8DBD8FE39CE90197F1F700C06F
:1001C0000000089581E58CBD8DB581608DBD8FE304
:1001D0009CE90197F1F700C0000008958EBD0DB4B1
:1001E00007FEFDCF80EA8A95F1F78EB50895EF926C
:1001F000FF920F931F93CF93DF938C017B01EC0150
:10020000CE01801B910B8E159F054CF0F80180816B
:10021000DF91CF911F910F91FF90EF90089588810A
:100220000E94EE008993ECCF29980895299A0895A9
:100230005C9808955C9A0895289A089528980895DE
:1002400084B1836084B90C941E010F931F93CF93E4
:10025000DF9300D0CDB7DEB7182F062F0E94E20043
:100260001F71106219830A830E94140162E070E01A
:10027000CE0101960E94F7000E9416010F900F9088
:10028000DF91CF911F910F910895CF93DF93EC01F0
:100290000E94E200809132018130E1F30E941E0150
:1002A00081E0809332016EE480E00E9425010E948B
:1002B000140181EE0E94EE000E9416010E941401BA
:1002C00080EA0E94EE0069E070E0CE010E94F70033
:1002D0000E9416010E941C0185E38A95F1F7000037
:1002E000DF91CF910C941E010E94E20066E286E04D
:1002F0000E9425016CE480E00E9425016FE284E009
:100300000E9425016EE480E00E94250110923201D6
:1003100008950E94E20066E286E00E94250169E0FD
:1003200081E10E942501109232016FE080E00E947D
:1003300025010C941C010F931F93CF93DF93D82FAB
:100340008B01C42F0E94E2000E9414018D2F8F7137
:1003500080620E94EE006C2F70E0C8010E94F700DE
:10036000DF91CF911F910F910C941601CF93C82F5D
:100370000E94E2000E9414018C2F8F710E94EE00F7
:1003800061E070E080E090E00E94F700C82F0E94DA
:1003900016018C2FCF910895CF93DF93EC010E942B
:1003A000E2000E94140181E60E94EE0069E070E024
:1003B000CE010E94F700DF91CF910C9416018FEFD0
:1003C0000C94EE0080913201811107C029988FEFC3
:1003D0000E94EE00299A8074089580E00895459A5D
:1003E0008AE68A95F1F700C04598089598B1907F04
:1003F00098B998B182958F70892B88B90C94EF01C8
:10040000CF93C82F449A0E94F6018C2F8295807F4B
:100410000E94F60185EF8A95F1F70000CF910895CB
:10042000CF93C82F44980E94F6018C2F8295807F2D
:100430000E94F60180EE8A95F1F7CF91089581E050
:100440000E9410028FE39FE10197F1F700C00000C6
:10045000089587B18F6387B988B1807C88B98FE5AB
:100460009AEE0197F1F700C0000080E30E94F601C8
:100470008FE19EE40197F1F700C000000E94EF01B8
:100480008FE99FE00197F1F700C000000E94EF01A3
:100490008FE99FE00197F1F700C0000080E20E9421
:1004A000F6018FE19EE40197F1F700C0000088E2B9
:1004B0000E9410028CE00E94100286E00E9410024E
:1004C0000C941F0282E00E9410028FE39FE10197CB
:1004D000F1F700C000000895623061F018F4613057
:1004E00031F00895633041F0643041F00895805850
:1004F0000C9410028054FCCF8057FACF8053F8CF71
:10050000CF93DF93EC018991811103C0DF91CF91EB
:1005100008950E940002F7CF0F931F93CF93DF93AC
:100520008B0128E0829FC001112480640E94100288
:10053000E801085F1F4F89910E940002C017D10790
:10054000D1F780E8DF91CF911F910F910C941002A9
:10055000CF93DF93EC01888182958F708A3060F0B1
:10056000895C0E94000288818F708A3038F0895C33
:10057000DF91CF910C940002805DF3CF805DF8CFC6
:10058000EF92FF920F931F93CF93DF937C018B0128
:10059000642F80E00E946C02C0E0D0E0C7018C0FA5
:1005A0009D1FC017D1073CF0DF91CF911F910F9194
:1005B000FF90EF9008950E94A8022196EFCF8091BE
:1005C000410186FB882780F991E089270895CF9320
:1005D000DF93CDB7DEB7A9970FB6F894DEBF0FBE95
:1005E000CDBF85E0E9E0F1E0DE01959601900D9246
:1005F0008A95E1F789E0EEE0F1E0DE015C9601909A
:100600000D928A95E1F789E0E7E1F1E0DE0153968A
:1006100001900D928A95E1F789E0E0E2F1E0DE01D8
:100620001A9601900D928A95E1F789E0E9E2F1E0EE
:10063000DE01119601900D928A95E1F70E94D60095
:100640002C9865E070E0CE0185960E94F7002C9A08
:100650002FEF84E39CE0215080409040E1F700C000
:1006600000002C9869E070E0CE014C960E94F700E3
:100670002C9A2FEF84E39CE0215080409040E1F7DA
:1006800000C000002C9869E070E0CE0143960E9403
:10069000F7002C9A2FEF84E39CE02150804090409B
:1006A000E1F700C000002C9869E070E0CE010A96E6
:1006B0000E94F7002C9A2FEF84E39CE021508040A9
:1006C0009040E1F700C000002C9869E070E0CE0196
:1006D00001960E94F7002C9AA9960FB6F894DEBFF7
:1006E0000FBECDBFDF91CF9108950E9429020E94D5
:1006F00020010E94CC000E94E2002FEF80E792E0F0
:10070000215080409040E1F700C000008AE08093D3
:10071000690081E08DBB7894539A3D9A0E947401E0
:1007200049E050E060E071E08DE391E00E94BD039C
:100730000E94D6000E94180169E070E08DE391E00C
:100740000E94F7000E941A01459A80913D018F3F57
:1007500091F480913F018A3571F40E9453005B9AB5
:100760008DE391E00E9445015B988FE39CE901973E
:10077000F1F700C000004598D3CFFB01DC014150E8
:10078000504048F001900D920020C9F701C01D9221
:0C07900041505040E0F70895F894FFCF6E
:10079C000142000000000000000143000100014480
:1007AC0000010300000000014D000001FFFFFFFFEE
:1007BC00014F00FFFF03000000014300005A5A5A8A
:0207CC005A5A77
:00000001FF
