:100000000C9434000C9453000C9451000C94510047
:100010000C9451000C9451000C9451000C9451001C
:100020000C9451000C9451000C9451000C9451000C
:100030000C9451000C9451000C9451000C945100FC
:100040000C9451000C9451000C9451000C945100EC
:100050000C9451000C9451000C9451000C945100DC
:100060000C9451000C94510011241FBECFEFD8E026
:10007000DEBFCDBF11E0A0E0B1E0ECE2F7E002C0EE
:1000800005900D92A233B107D9F721E0A2E3B1E0C8
:1000900001C01D92A636B207E1F70E9447030C94F7
:1000A00094030C9400001F920F920FB60F9211242C
:1000B0002F933F934F935F936F937F938F939F9370
:1000C000AF93BF93CF93EF93FF930E94E6008FEF20
:1000D0000E94C000C82F0E94E800C5FF06C060E271
:1000E00087E00E94F70010923201C4FF0CC060E16B
:1000F00087E00E94F7000E94EE0085E38A95F1F701
:1001000000000E94F000C0FF07C00E94E60081EEE0
:100110000E94C0000E94E800FF91EF91CF91BF9133
:10012000AF919F918F917F916F915F914F913F918F
:100130002F910F900FBE0F901F901895249884B1A7
:100140008C6284B9549A85B1866085B95C9A0895A9
:100150008EE78CBD8DB58E7F8DBD8FE39CE90197B9
:10016000F1F700C00000089581E58CBD8DB5816078
:100170008DBD8FE39CE90197F1F700C00000089561
:100180008EBD0DB407FEFDCF80EA8A95F1F78EB5DE
:100190000895EF92FF920F931F93CF93DF938C01FB
:1001A0007B01EC01CE01801B910B8E159F054CF05D
:1001B000F8018081DF91CF911F910F91FF90EF9017
:1001C000089588810E94C0008993ECCF29980895F2
:1001D000299A08955C9808955C9A0895289A08953C
:1001E0002898089584B1836084B90C94F0000F932B
:1001F0001F93CF93DF9300D0CDB7DEB7182F062F14
:100200000E94B4001F71106219830A830E94E600E5
:1002100062E070E0CE0101960E94C9000E94E800F1
:100220000F900F90DF91CF911F910F910895CF9371
:10023000DF93EC010E94B400809132018130E1F340
:100240000E94F00081E0809332016EE480E00E9421
:10025000F7000E94E60081EE0E94C0000E94E800C4
:100260000E94E60080EA0E94C00069E070E0CE01D2
:100270000E94C9000E94E8000E94EE0085E38A9572
:10028000F1F70000DF91CF910C94F0000E94B400D0
:1002900066E286E00E94F7006CE480E00E94F700CE
:1002A0006FE284E00E94F7006EE480E00E94F700B5
:1002B0001092320108950E94B40066E286E00E9426
:1002C000F70069E081E10E94F700109232016FE0CF
:1002D00080E00E94F7000C94EE000F931F93CF93E1
:1002E000DF93D82F8B01C42F0E94B4000E94E60038
:1002F0008D2F8F7180620E94C0006C2F70E0C8014A
:100300000E94C900DF91CF911F910F910C94E800DA
:10031000CF93C82F0E94B4000E94E6008C2F8F71EB
:100320000E94C00061E070E080E090E00E94C9009F
:10033000C82F0E94E8008C2FCF910895CF93DF93B0
:10034000EC010E94B4000E94E60081E60E94C00019
:1003500069E070E0CE010E94C900DF91CF910C945A
:10036000E8008FEF0C94C00080913201811107C02A
:1003700029988FEF0E94C000299A8074089580E028
:100380000895459A8AE68A95F1F700C04598089540
:1003900098B1907F98B998B182958F70892B88B960
:1003A0000C94C101CF93C82F449A0E94C8018C2F8E
:1003B0008295807F0E94C80185EF8A95F1F7000041
:1003C000CF910895CF93C82F44980E94C8018C2FD5
:1003D0008295807F0E94C80180EE8A95F1F7CF91C7
:1003E000089581E00E94E2018FE39FE10197F1F718
:1003F00000C00000089587B18F6387B988B1807C01
:1004000088B98FE59AEE0197F1F700C0000080E30C
:100410000E94C8018FE19EE40197F1F700C000003F
:100420000E94C1018FE99FE00197F1F700C0000031
:100430000E94C1018FE99FE00197F1F700C0000021
:1004400080E20E94C8018FE19EE40197F1F700C0AD
:10045000000088E20E94E2018CE00E94E20186E056
:100460000E94E2010C94F10182E00E94E2018FE31C
:100470009FE10197F1F700C000000895623061F03C
:1004800018F4613031F00895633041F0643041F088
:10049000089580580C94E2018054FCCF8057FACF25
:1004A0008053F8CFCF93DF93EC018991811103C082
:1004B000DF91CF9108950E94D201F7CF0F931F9340
:1004C000CF93DF938B0128E0829FC00111248064C9
:1004D0000E94E201E801085F1F4F89910E94D2014A
:1004E000C017D107D1F780E8DF91CF911F910F910D
:1004F0000C94E201CF93DF93EC01888182958F7099
:100500008A3060F0895C0E94D20188818F708A30C5
:1005100038F0895CDF91CF910C94D201805DF3CFEC
:10052000805DF8CFEF92FF920F931F93CF93DF93ED
:100530007C018B01642F80E00E943E02C0E0D0E08D
:10054000C7018C0F9D1FC017D1073CF0DF91CF91E1
:100550001F910F91FF90EF9008950E947A022196CB
:10056000EFCF8091410186FB882780F991E08927B0
:100570000895CF93DF93CDB7DEB7A9970FB6F89460
:10058000DEBF0FBECDBF85E0E9E0F1E0DE0195966C
:1005900001900D928A95E1F789E0EEE0F1E0DE014D
:1005A0005C9601900D928A95E1F789E0E7E1F1E030
:1005B000DE01539601900D928A95E1F789E0E0E221
:1005C000F1E0DE011A9601900D928A95E1F789E03B
:1005D000E9E2F1E0DE01119601900D928A95E1F7D2
:1005E0000E94A8002C9865E070E0CE0185960E94DC
:1005F000C9002C9A2FEF84E39CE02150804090406A
:10060000E1F700C000002C9869E070E0CE014C9644
:100610000E94C9002C9A2FEF84E39CE02150804077
:100620009040E1F700C000002C9869E070E0CE0136
:1006300043960E94C9002C9A2FEF84E39CE021503E
:1006400080409040E1F700C000002C9869E070E025
:10065000CE010A960E94C9002C9A2FEF84E39CE0F9
:10066000215080409040E1F700C000002C9869E0E4
:1006700070E0CE0101960E94C9002C9AA9960FB68F
:10068000F894DEBF0FBECDBFDF91CF9108950E94D9
:10069000FB010E94F2000E949E000E94B4002FEF16
:1006A00080E792E0215080409040E1F700C00000D8
:1006B0008AE08093690081E08DBB7894539A0E9410
:1006C000460149E050E060E071E08DE391E00E9476
:1006D00085030E94A8000E94EA0069E070E08DE3B3
:1006E00091E00E94C9000E94EC005B9A8DE391E0CA
:1006F0000E9417015B982FEF80E792E02150804025
:100700009040E1F700C00000DCCFFB01DC0141506C
:10071000504048F001900D920020C9F701C01D9291
:0C07200041505040E0F70895F894FFCFDE
:10072C0001420000000000000001430001000144F0
:10073C0000010300000000014D000001FFFFFFFF5E
:10074C00014F00FFFF03000000014300005A5A5AFA
:02075C005A5AE7
:00000001FF
